:100000000C9434000C943E000C943E000C943E0082
:100010000C943E000C943E000C943E000C943E0068
:100020000C943E000C943E000C943E000C943E0058
:100030000C943E000C943E000C943E000C943E0048
:100040000C943E000C943E000C943E000C943E0038
:100050000C943E000C943E000C943E000C943E0028
:100060000C943E000C943E0011241FBECFEFD8E04C
:10007000DEBFCDBF0E946F000C947E000C94000088
:100080009093C5008093C40088E18093C1008EE006
:100090008093C20008959091C00095FFFCCF80939B
:1000A000C60008958091C00087FFFCCF8091C600F4
:1000B00008958091C00087FF08958091C600F9CF10
:1000C0009C012115310509F4089590E588E20000AE
:1000D0008150E9F79150D1F721503109F2CF87E6ED
:1000E00090E00E94400081E60E944B0082E60E9460
:1000F0004B0088EE93E00E946000F5CFF894FFCFAC
:00000001FF
